:020000041008E2
:100000000000082859640810A16A081049680810FF
:10001000A56A0810A96A0810AD6A0810000000005F
:100020000000000000000000000000001D69081032
:10003000B16A081000000000B56A0810B96A08101B
:10004000DF620810056308102B6308105163081065
:10005000776308109D630810C3630810E9630810F4
:10006000BD6A0810C16A0810C56A0810C96A08107C
:10007000CD6A0810D16A0810D56A0810D96A08102C
:1000800040F0200070472DE9F14FB0B09246049146
:100090000DF142013A9A2B9199464A7000200AE0EC
:1000A0001AF8011B0498309A90470028049000F039
:1000B00034860D98401C0D909AF8000050B1252808
:1000C000EED1002100220791089209910A920B912A
:1000D0000C9204E00D9800F022BE41F001011AF8E4
:1000E000010F2028F9D023280CD02B2804D02D284C
:1000F00005D0302809D00BE041F00201EFE741F0D4
:100100000401ECE741F00801E9E741F01001E6E7FE
:100110002A280FD1D9F8002052F8040BC9F8002082
:1001200000280F9003D540420F9041F004010AF1DE
:10013000010A14E00F92DFF8EC3B0AE00F989842B6
:1001400005DA00EB800402EB4402303A0F920AF128
:10015000010A9AF80020A2F130000A28EED39AF89A
:1001600000002E2803D04FF0FF320E9229E01AF83B
:10017000010F2A2809D1D9F8000050F8042BC9F83A
:1001800000000E920AF1010A1BE02D280CBF0AF1B3
:10019000010A002000220E92DFF8884B0BE040B9E4
:1001A0000E9AA24205DA02EB820503EB4503303BCF
:1001B0000E930AF1010A9AF80030A3F130020A2ADC
:1001C000EDD3ADF840100FF660309AF8001000F053
:1001D000EDFE08B11AF8010B8DF842009DF84200BF
:1001E000682805D19AF8000068280CD1622106E041
:1001F0006C2804BF9AF800006C2804D171218DF896
:1002000042100AF1010A12A806901AF801BBBBF1CC
:1002100025012CD01C3900F09481091F022940F2DD
:100220009081133900F0AB84093900F08A81891E6E
:1002300000F04085491E00F0ED84491E022940F27D
:100240008081091F00F0E684491F00F0EF80491EFD
:1002500000F09584491E00F0D780C91E0CD0891E7D
:1002600000F08D84C91E00F08A8400F02EBD0123A9
:100270000793252100F026BDD9F8000050F8044B63
:10028000C9F80000002C059440F0AB802B99487809
:10029000002800F0A1804FF0FF340FF6942000F00A
:1002A0009DFE241A40F0398500F01BBD01236A46EB
:1002B00002A9304600F000FE002840F02E85641EA2
:1002C000F4D13096079C12AF74B1309E17F8011B21
:1002D0000498B0470028049000F01F850D98401C3A
:1002E000641E0D90F2D130960A9C3021002C8DF8BE
:1002F00000100CDD309E01236A4602A9304600F052
:10030000DBFD002840F00985641EF4D13096059F7E
:10031000089C74B1309E17F8011B0498B047002860
:10032000049000F0FA840D98401C641E0D90F2D1E8
:1003300030960B9C3021002C8DF800100CDD309E87
:1003400001236A4602A9304600F0B6FD002840F0BD
:10035000E484641EF4D1309605980899099C4718E6
:1003600074B1309E17F8011B0498B0470028049020
:1003700000F0D3840D98401C641E0D90F2D130968D
:100380000C9C3021002C8DF800100CDD309E0123D8
:100390006A4602A9304600F08FFD002840F0BD8477
:1003A000641EF4D130969DF8400041077FF584AE7D
:1003B0002020002D8DF800007FF77EAE309C0123B9
:1003C0006A4602A9204600F077FD002840F0A58487
:1003D0006D1EF4D130946FE60FF63C30059000F0BE
:1003E00080BC0E9D002D04D5204600F017FE04466B
:1003F00007E02A46204600F031FE002814BF041B07
:100400002C46089400F06DBCD9F8001051F8040B8C
:10041000C9F8001020F00004002121F0FF35CDE9DB
:10042000024512AB0593782100F040BC2B99487827
:1004300020B14FF0FF340FF6B02030E79DF84200B6
:10044000622860D0682817D06A283FD06C2806D070
:10045000712847D074282CD07A281DD062E0D9F8B2
:10046000001051F8040BC9F80010002866D14FF0B5
:10047000FF340FF68C2012E7D9F8001051F8040B66
:10048000C9F8001020B94FF0FF340FF6742006E7CA
:100490000D99018000F025BCD9F8001051F8040B2B
:1004A000C9F80010002849D14FF0FF340FF6502052
:1004B000F5E6D9F8001051F8040BC9F8001000282F
:1004C0003CD14FF0FF340FF63820E8E6D9F80010A1
:1004D00051F8040BC9F8001080B94FF0FF340FF643
:1004E0002020DCE6D9F8001051F8040BC9F8001000
:1004F00020B94FF0FF340FF60820D0E60D9AD3173D
:10050000C0E90023EDE3D9F8001051F8040BC9F855
:10051000001020B94FF0FF340FF6E410BFE60D993C
:100520000170DEE3D9F8001051F8040BC9F800108F
:1005300020B94FF0FF340FF6C810B0E60D990160F6
:10054000CFE39DF842004C2807BFD9F80010CA1D20
:10055000D9F80000C21D22F00702C9F80020D2E934
:1005600000010832C9F80020CDE90201C80F02D00D
:1005700007982D210AE0BDF84000810702D50798B1
:100580002B2103E0C00705D50798202112AA11549A
:10059000401C079012A807994BF0200300EB010CB8
:1005A000DDE90201CDE92C01612BCDF814C021ACAD
:1005B0000BD00E98002848BF062105D404BF4BF08D
:1005C0002000672801D101210E91DDE902014F00D1
:1005D00047EAD0777E15FF174FF0FF32974208BFEA
:1005E000964210D1090341EA10510003002908BFC7
:1005F000002808D0ABF1610503211A2D089118D30A
:100600000FF61C1110E0DDE902014A00521512F14B
:10061000010F11D108030FD1ABF1610503211A2D90
:1006200008911FD30FF600110322604600F042FD2F
:1006300057E30FF6E801F7E7DDE902016A4600F04B
:100640008DFDCDE902014BF02000612811D1059804
:1006500030210170821C0592BBF1610F0CBF782123
:10066000582102E00FF6BC01DEE741700798801CBC
:100670000790DDE9020120F0000231F0004308BFDD
:10068000002A02D10026002542E14BF02008B8F1F3
:10069000610F40F092800E98002847BF2121019100
:1006A000401C0190019FDDE92C017F1C00220023EA
:1006B000DDE9024500F08AFD38BF85F0004500996C
:1006C0008DF88420091F002F00910DF1850632DD81
:1006D000204629460022002300F092FD2BD21C2246
:1006E00000F0A8FD04460D4600F026FEFF1F002F77
:1006F000804609DD00F027FE02460B4620462946CB
:1007000000F028FE04460D46F01D0721B8F1000F49
:100710000CDD491E5EBF08F00F0200F8012D4FEA04
:100720002818F3D502E0002200F8012D491EFAD561
:10073000C61D002FCCDC0DF18500361A01980DF195
:1007400085048642D8BF304600282FD4B04206DA4E
:100750000DF185010A5C082AA8BF0F2100DA0021EB
:10076000024621AB134400E0401E13F80159521E0B
:100770008D42F9D00F2904D10DF185018B5C5B1CF2
:100780008B54002A04D50099091D21AC401C00910E
:10079000411E0BD4621813783033DDB23A2DA4BF5A
:1007A0005B443A3B491E02F80139F4D50E99002901
:1007B00040F1AC80421E0E92A8E00099DFF8E826D6
:1007C00047F29750414391FBF2F20092DDE92C454C
:1007D000C2F10702002A25F0004504DD2046294623
:1007E00000F03EFB0BE052420020DFF8C01600F0A4
:1007F00037FB02460B462046294600F0B4FD04466E
:100800000D46B8F1660F06BF009F0A3706270E98FF
:100810003F18142FC8BF142730208DF884000DF125
:100820008506002F34DD2046294600F0A5FD01464F
:100830000A4606F1080304200A26B2FBF6F606EB88
:10084000860EA2EB4E02303203F8012C0A22B6FBD0
:10085000F2F202EB820EA6EB4E063036401E03F893
:10086000026DE9D1083F002F03F10806D9DD0846E3
:1008700000F089FD02460B462046294600F06AFD3D
:100880000022DFF82C3600F085FD04460D46CAE74D
:100890000DF18500361A0DF1850404E00098401E24
:1008A000761E0090641C20783028F7D0B8F1660FCF
:1008B00002D10098401C04E0B8F1650F0CBF012084
:1008C00000200E9940188642B8BF701E00281DD423
:1008D000B04204DA215C3429C8BF392100DC302160
:1008E0000246631E9D1800E0401E15F80169521E65
:1008F0008E42F9D0392902D1A15C491CA154002AA9
:1009000004D50099491C1C46401C00910646009DD8
:100910000E9F30B2002802DC01260FF210644BF06B
:100920002000662808BF6D1C15D067280FFA85F8CF
:1009300041D118F1040F44DBB84542DA9DF840007C
:100940006D1C010703D430B2B842D8BF074628B2A5
:100950003F1A48BF00270FFA85F8B8F1000F00F3DF
:10096000AF800898411C0891302205990A54002F45
:1009700003DC9DF84000010705D50898411C08914B
:100980002E2205990A5417EB080FB8BF7D422DB2ED
:100990006842ED1932B20B909542B8BF2E46059BC6
:1009A000089836B2099632462146184400F082FB78
:1009B000AD1B0C95CCE0BBF1610F15D14FF0700B66
:1009C00017E030B2B84204DA9DF840100A0758BF69
:1009D00007467F1E48BF0027BBF1670F14BF4FF0CB
:1009E000450B4FF0650B04E0BBF1410F08BF4FF022
:1009F000500B0898411C0891002F059914F8012B01
:100A00000A5403DC9DF84000010719D50898411CE1
:100A100008912E2205990A54002F11DD761E30B25E
:100A20008742B8BF3E460598089B32B2214618441B
:100A300000F040FB089836B23018BF1B08900B97A7
:100A4000059808990844B8F1000F80F800B003D465
:100A50002B224270821C04E02D2145464170821CED
:100A60006D4200212CAB28460AE004460A2094FB84
:100A7000F0F000EB8005A4EB450403F8014B491CA2
:100A800000B20028F1DC012906DC4BF020006528CB
:100A900004BF302002F8010B00292CAB08D1302014
:100AA00002F8010B06E0491E585C303002F8010BD9
:100AB0000029F8DC059908980844121A099247E0C1
:100AC00030B229B288421BDA0598089B32B221461F
:100AD000184400F0EFFA089936B271180891A8EBA3
:100AE0000600002F0B9003DC9DF84000020705D59F
:100AF000059A2E2050540999491C09910C9727E01A
:100B00000598089B2AB22146184400F0D3FA0898A9
:100B1000761B4044002F089003DC9DF840100A0724
:100B200004D5411C08912E2205990A5430B28742FF
:100B3000B8BF3E460598089B32B204EB0801184442
:100B400000F0B8FA089836B23018BE1B08900B9621
:100B50009DF8400000F01400102840F0C280079A71
:100B600008980B99821809988A1882180C980F997E
:100B70008018884280F2B580081A0A90B1E09DF88A
:100B80004200622808D068280ED06A2814D06C2849
:100B90001FD0712810D01CE0D9F8001051F8040BB8
:100BA000C9F80010C0B21AE0D9F8001051F8040BCF
:100BB000C9F8001080B212E0D9F80000C21D22F07E
:100BC0000702C9F80020D2E900010832C9F8002064
:100BD00006E0D9F8001051F8040BC9F80010002104
:100BE000CDE902019DF8400001075AD5DDE9022355
:100BF000002B08BF002A54D04BF02000782850D199
:100C0000079812A930220A54401C431C079301F88C
:100C100000B046E09DF84200622808D068280ED057
:100C20006A2814D06C281FD0712810D01CE0D9F885
:100C3000001051F8040BC9F8001040B21AE0D9F8BE
:100C4000001051F8040BC9F8001000B212E0D9F8F6
:100C50000000C21D22F00702C9F80020D2E90001FD
:100C60000832C9F8002006E0D9F8001051F8040B4A
:100C7000C9F80010C117CDE90201002902D5079873
:100C80002D210AE0BDF84000810702D507982B21ED
:100C900003E0C00705D50798202112AA1154401C73
:100CA000079012A8079901440591594602A800F03F
:100CB0004DF816E001200790D9F8000050F8041B09
:100CC000C9F800008DF848100BE001212522BBF186
:100CD000000F07918DF8482003D0022207928DF86B
:100CE00049B00F9D07990A986D1A08992D1A0B980B
:100CF0006D1A09992D1A0C986D1A9DF840102D1A2D
:100D000048073FF5DFAA2021002D8DF800107FF75E
:100D1000D9AA309E2C46FFF7C9BA4FF0FF3031B048
:100D2000BDE8F08FCBCCCC0C686A6C747A4C0000B8
:100D30007072696E74665F733A2062616420257315
:100D400020617267756D656E740000002DE9FC47C7
:100D500007468A463C6950466F2808BF082505D0DB
:100D6000FFF78EF9782814BF0A251025D7E900016E
:100D70003C2680468946BAF1640F18BFBAF1690F64
:100D800005D1002903D5D8F1000869EB4909B9F16B
:100D9000000F08BFB8F1000F0CD1386B50B9082D07
:100DA0003AD197F83800010736D530223B2684F82F
:100DB0003B2031E08DF800A0404649462A46EB171B
:100DC00000F0F2FA3032D0B2761E3A2801960EDAEE
:100DD000A255404649462A46EB1700F0E5FA804600
:100DE0005FEA010908BFB8F1000F05D108E09DF8DE
:100DF00000001218513AEBE7F868A1198842DBD3DA
:100E0000082D09D197F83800010705D5A05D3028D5
:100E100002D0761E3020A055C6F13C03BB61A1195B
:100E2000F960386B834208DAC31A3B624FF6EF7001
:100E3000398F01403987BDE8F38700280ED597F830
:100E4000380000F01400102808D17A6B7969386AEC
:100E5000521A121AD21A002AC8BF3A62BDE8F387A2
:100E60002DE9D04306460F4614464FF00008DFF840
:100E7000449012E0E00707D542464B4630463946DB
:100E800000F088FA06460F464046494642464B4621
:100E900000F080FA641080468946002CEAD1304682
:100EA0003946BDE8D0830000A08601000000F03F75
:100EB00084D7974100002440F8B505460E461746F2
:100EC0001C4600205CB117F8011BB068A847B06051
:100ED00030B1F06A401CF0620020641EF3D1F2BD14
:100EE0004FF0FF30F2BD00007072696E74665F7380
:100EF0003A20256E20646973616C6C6F77656400BD
:100F00007072696E74663A2062616420256E206199
:100F10007267756D656E7400000000006E616E0092
:100F20004E414E00696E6600494E46003000F0B4F6
:100F30000246106895681318506803EB5004C00708
:100F400048BF4D44A3422DD013F8016B16F00300A7
:100F500004BF13F8010BC01C31090F2907D113F886
:100F6000011B0F3103E013F8017B05F8017B401EE4
:100F7000F9D10029E6D013F8010BC6F38106032E40
:100F800008BF13F8016B00EB0620404228440026FE
:100F9000B71E8F421EBF10F8017B05F8017B761C3F
:100FA000F6D1CFE7F0BC02F10C007047C9B202786D
:100FB0008A421AB11CBF10F8012FF9E718BF0020B0
:100FC00070478268521C8260426832B10268531CCA
:100FD000036011704168491E4160704780B500B9D7
:100FE00006A005490B681BB122220021984701E0A9
:100FF00000F0F2FA222002BDCC0E0228636F6E735D
:10100000747261696E742068616E646C65723A20F6
:10101000626164206D6573736167650000F10103AF
:10102000810704D010F8011B820781B1FAD1026850
:10103000A2F10131914311F0803104BF50F8042F27
:10104000F6E709BAB1FA81F100EBD100401CC01AF1
:1010500070470268531C036011707047C9B2830760
:1010600006D0521E22D310F8013B9942F7D11FE05F
:10107000083A13D302F1040241EA012141EA014195
:1010800050F8043B121F21BF4B40A3F1013C2CEA56
:10109000030C1CF0803FF3D0C9B2001F083210F8D7
:1010A000013B521E28BF91EA030FF8D818BF012058
:1010B000401E704762B38B0708D0521E11F8013BE7
:1010C00000F8013B00F024808B07F6D1830740F045
:1010D000208000BF103A07D330B4B1E83810103A7E
:1010E000A0E83810F9D230BC530724BFB1E808108B
:1010F000A0E8081044BF51F8043B40F8043BD20775
:1011000024BF31F8022B20F8022B44BF0B78037068
:101110007047121F17D35B0009D151F8043B20F828
:10112000023B1B0C121F20F8023BF6D20BE051F8D9
:10113000043B00F8013B1B0A20F8023B1B0C121F6A
:1011400000F8013BF3D238BF121D521E24BF11F824
:10115000013B00F8013BF8D87047000010B5144679
:1011600000F002F8226010BDC1F30A5343B14A00F7
:1011700012F5001F28D2A3F2FE32A1EB02517047F4
:1011800050EA410C20D001F0004C31EA0C01B1FAD8
:1011900081F204BFB0FA80F3D2180B3AB2F1200307
:1011A0002CBF00FA03F1914041EA0C013EBFC2F1AD
:1011B000200C20FA0CF319439040524240F2FD33C8
:1011C000D21A01EB035170470022704741EA030C29
:1011D00050EA4C0C52EA0C0C4FF4001C09D307D017
:1011E0001CEB410F9CBF1CEB430F8B4208BF82429C
:1011F00070471CEB430FFBD8994208BF90427047E1
:1012000041EA030C50EA4C0C52EA0C0C4FF4001C5F
:1012100009D307D01CEB410F9CBF1CEB430F994235
:1012200008BF904270471CEB410FFBD88B4208BFB0
:101230008242704700B541EC100B104600F004F8F4
:1012400051EC100B00BD00BF020030EE101B40F24D
:10125000FF7C37D41CEA115313D063456BD09B1825
:10126000634504D201EB025120EE101B704701F0E0
:10127000004141EA0C51002041EC100BAFF300801B
:10128000704710EE100B50EA410054D0B2F57F7F4A
:1012900008D202EB5C010905002041EC110B20EEA5
:1012A000010B70474FF0FE41002341EC113B20EE53
:1012B000010BB2F57E7230EE101B4FEA410342EB98
:1012C0005353CDE752421CEA115316D0634532D036
:1012D0009A4204D2A1EB025120EE101B70475B1E14
:1012E000D21AA1EB035120EE101B372A0CD3002099
:1012F00001F0004141EC100BC0E710EE100B50EA7A
:10130000410018D0372AF2D2C2EB5C02110500204E
:1013100041EC110BF1EE100A20F01F0121F4F851FD
:10132000E1EE101A20EE010BF1EE101AE1EE100AB8
:1013300011F0080FA2D1704741EC100BBDEEC00BAD
:1013400010EE100A704700EE100AB8EEC00B51EC18
:10135000100B704741EC100B43EC112B30EE410B9E
:1013600051EC100B704741EC100B43EC112B80EE4D
:10137000010B51EC100B704741EC100BBCEEC00B95
:1013800010EE100A704700EE100AB8EE400B51EC58
:10139000100B704741EC100B43EC112B20EE010BAE
:1013A00051EC100B70470000BBBBE1B1B2F5803FC0
:1013B00080F07E80022A1ED98C46B1FBF2F102FB3E
:1013C00011C31B0443EA1043B3FBF2FC02FB1C33C2
:1013D00080B240EA0343B3FBF2F002FB103240EA72
:1013E0000C4000237047022A05D98446B0FBF2F076
:1013F00002FB10C270474AB105D100F00102490852
:101400005FEA3000704700220023704700F0E8B820
:101410000B000200002100207047904271EB030C8A
:10142000F6D3B3F5803F2FD2F0B5B3FA83F7B1FA14
:1014300081F4A7F10F0E3D1B5340CEF1200602FAB6
:101440000EF2F3415340B5F10F0746D80F3C2C4440
:101450004140C4F12006A040F1414140B1FBF3F608
:1014600003FB1611A2FB0645001BA94102D2761E02
:101470008018594180EA010221FA0EF362FA0EF255
:1014800000215A403046F0BD30B4B1FBF3FC03FB01
:101490001C11A2FB0C45001BA94103D2ACF1010CAD
:1014A0008018594130BC02460B4660460021704707
:1014B000B2F1807F65D3F0B5B2FA82F7B1FA81F468
:1014C000C7F10F063D1B22FA06F307F1110EF24198
:1014D00020355A40B5F10F07B8D94140C4F1200674
:1014E000A040F1414140B1FBF3FC03FB1C11A2FB06
:1014F0000C45001BA94103D2BCF1010C80185941D5
:101500000F2F12D30F3FC90341EA5041B1FBF3F64D
:1015100003FB1611A2FB0645D4EBC030A94102D251
:10152000761E8018594146EACC3C07B34140C7F1CA
:101530002006B840F1414140B1FBF3F603FB161120
:10154000A2FB0645001BA94102D2761E8018594114
:1015500080EA010221FA0EF3C7F1200462FA0EF2CA
:101560000CFA07F05A402CFA04F13043F0BD80EA3F
:10157000010221FA0EF3002162FA0EF260465A408F
:10158000F0BD8C46B1FBF2F102FB11C31B0243EA32
:101590001063B3FBF2FC02FB1C331B024CEA00207D
:1015A00043EA1063B3FBF2FC02FB1C331B024CEA60
:1015B000002043EA1063B3FBF2FC02FB1C331B0266
:1015C0004CEA002043EA1063B3FBF2FC02FB1C323E
:1015D0004CEA002000237047012000F003B800000F
:1015E0007047000080B5AFF30080024A1100182058
:1015F000ABBEFBE726000200D0F80803C005C00D13
:10160000704710F541710A6852F480320A6010F593
:1016100041710A6832F480320A60D0F804037047DE
:10162000C0F840127047D0F80802C005C00D7047DE
:10163000D0F80802C0F3C030704738B50500280064
:10164000FFF7F1FF04002800FFF7F2FF0419002C58
:1016500001D1012000E00020C0B232BD0068C0F31B
:101660008130002801D1802000E0402070470168CF
:1016700051F00041016070472030026861F39B62C5
:101680000260704780B5FFF7B7FF02BD80B5FFF776
:10169000B8FF01BD022801D3012010E00B00DBB22E
:1016A000042B01DB01200AE0DFF8203503EB80008A
:1016B000C9B2405C824201D3012000E000207047A3
:1016C000F8B504000F0015001E00022C01D3012004
:1016D0002AE02A003900C9B22000FFF7DBFF012809
:1016E00001D1012020E006983900C9B202291ED19B
:1016F000B6F5803F19D2202817D24FF4C052DFF838
:10170000D01463030B4403EB850313441F6866F393
:1017100017271F606403214401EB850111440A6807
:1017200060F3C7020A600020F2BD0120FCE7FFB2AF
:10173000032F1FD1B6F1807F1AD2202818D24FF480
:10174000E052DFF88C1463030B4403EB850313446E
:101750001F6807F0FF0757EA06271F60640321444C
:1017600001EB850111440A6860F3C7020A60DAE7F9
:101770000120D9E70120D7E700B20012C0B27047BC
:10178000F8B505000E001700280000B2FFF7F4FFBF
:1017900004002000C0B2022801D3012024E03A0056
:1017A0003100C9B22000C0B2FFF774FF012801D197
:1017B000012019E0DFF818142000C0B240030844EB
:1017C0002A00D2B200EB8200D0F8000CF6B266F329
:1017D000092067F30700E4B264032144EDB201EB92
:1017E0008501C1F8000C0020F2BD70B504000D00A9
:1017F0001600022C01D301201DE032002900C9B2DD
:101800002000FFF747FF012801D1012013E0DFF896
:10181000C0136003085850F0004050F0407050F47E
:101820007F00EDB265F3092066F30700620388507C
:1018300064030859002070BD0100C020C9B200290E
:1018400005D0022907D004D3032906D006E01220D0
:1018500004E0622002E07A2000E01A20C0B2704763
:101860000100C020C9B2002905D0022907D004D345
:10187000032906D006E0112004E0612002E079206F
:1018800000E01920C0B270470100C020C9B2002991
:1018900005D0022907D004D3032906D006E0102082
:1018A00004E0602002E0782000E01820C0B2704719
:1018B0000100C020C9B200290BD002290DD00AD3E3
:1018C00004290ED00BD306290FD00CD307290ED034
:1018D0000EE013200CE014200AE0632008E06420EE
:1018E00006E07B2004E0292002E01B2000E01C2011
:1018F000C0B2704701000020C9B2002905D00229FA
:1019000007D004D3032906D006E0132004E01320F7
:1019100002E0132000E01320C0B270470100002055
:10192000C9B2002905D0022907D004D3032906D063
:1019300006E0132004E0132002E0132000E013204F
:10194000C0B2704701000020C9B2002905D00229A9
:1019500007D004D3032906D006E0132004E01320A7
:1019600002E0132000E01320C0B270470100002005
:10197000C9B200290BD002290DD00AD304290ED0F8
:101980000BD306290FD00CD307290ED00EE013205D
:101990000CE013200AE0132008E0132006E01320D7
:1019A00004E0132002E0132000E01320C0B27047CF
:1019B000C9B2082902D0102946D096E0DFF80014F9
:1019C0000200D2B251F82220126832F440420300E1
:1019D000DBB251F823301A600200D2B251F8222053
:1019E000D2F80022520952010300DBB251F8233031
:1019F000C3F800220200D2B251F82220D2F800220D
:101A000052F007020300DBB251F82330C3F8002282
:101A10000200D2B251F82220D2F80023520952011A
:101A20000300DBB251F82330C3F800230200D2B226
:101A300051F82220D2F8002352F00702C0B251F828
:101A40002000C0F8002350E0DFF874130200D2B287
:101A500051F82220126832F440420300DBB251F800
:101A600023301A600200D2B251F82220126852F4D8
:101A700080420300DBB251F823301A600200D2B278
:101A800051F82220D2F80022520952010300DBB2A1
:101A900051F82330C3F800220200D2B251F82220BC
:101AA000D2F8002252F00F020300DBB251F82330CB
:101AB000C3F800220200D2B251F82220D2F800234B
:101AC000520952010300DBB251F82330C3F800235E
:101AD0000200D2B251F82220D2F8002352F00F02B5
:101AE000C0B251F82000C0F8002370472DE9F04142
:101AF00004000F00160008212000C0B2FFF758FFB5
:101B0000DFF8C0522000C0B2285C08280FD02000A7
:101B1000C0B2285CC010DFF8B01211EBC011012078
:101B20002200D2B2AA5C12F0070290400860DFF8EF
:101B30009082FFB239002000C0B258F82000FFF7B1
:101B40006FFD2000C0B258F82000FFF787FD0700A6
:101B50002000C0B258F82000FFF765FD8742F0D0A2
:101B6000F6B231002000C0B258F82000FFF758FD4F
:101B70002000C0B258F82000FFF770FD06002000DA
:101B8000C0B258F82000FFF74EFD8642F0D020008A
:101B9000C0B258F82000FFF750FD0028F7D0200011
:101BA000C0B2285C08280ED02000C0B2285CC0104B
:101BB000DFF8181211EBC0110120E4B22A5D12F017
:101BC000070290400860BDE8F0810000246A081018
:101BD00000000440F8B504000D000020082120009A
:101BE000C0B2FFF7E5FE774E2000C0B2305C082897
:101BF0000ED02000C0B2305CC010734911EBC01190
:101C000001202200D2B2B25C12F0070290400860BC
:101C10006B4F2000C0B257F82000FFF733FD0028BB
:101C200005D02000C0B257F82000FFF72FFDEDB21D
:101C300029002000C0B257F82000FFF7F1FC200077
:101C4000C0B257F82000FFF71DFD0028F7D0200094
:101C5000C0B257F82000FFF719FD00212000C0B2E4
:101C600057F82000FFF7DCFC2000C0B257F8200036
:101C7000FFF7E3FC0028F7D02000C0B257F820009F
:101C8000FFF700FD0028F7D02000C0B257F8200071
:101C9000D0F840032100C9B2715C08290DD02100A1
:101CA000C9B2715CC910494A12EBC1120121E4B2F8
:101CB000335D13F0070399401160C0B2F2BD2DE906
:101CC000F84380460D0016001C0008214046C0B2B3
:101CD000FFF76EFE3B4F4046C0B2385C08280ED07E
:101CE0004046C0B2385CC010374911EBC01101202A
:101CF0004246D2B2BA5C12F0070290400860DFF8A8
:101D0000C0904046C0B259F82000FFF7BBFC002845
:101D100005D04046C0B259F82000FFF7B7FCEDB23D
:101D200029004046C0B259F82000FFF779FC404630
:101D3000C0B259F82000FFF7A5FC0028F7D04046B4
:101D4000C0B259F82000FFF7A1FC00214046C0B204
:101D500059F82000FFF764FC4046C0B259F8200053
:101D6000FFF76BFC0028F7D04046C0B259F82000BE
:101D7000FFF788FC0028F7D04046C0B259F8200091
:101D8000D0F840033070761C641E002CDDD1404634
:101D9000C0B2385C08280FD04046C0B2385CC010D2
:101DA0000A4911EBC01101205FFA88F817F80820E2
:101DB00012F0070290400860BDE8F18300000000C7
:101DC0007C070228C40E022804003140080031407C
:101DD0002DE9F04F9DB004000D001E00920000237D
:101DE000A1480021FFF7E0FA0700342100220DF19D
:101DF0000408404600F03EF93C2100220DF138086D
:101E0000404600F037F920003100C0B2C9B2884224
:101E100001D1012000E00020DDF89890DFF84CA20D
:101E200040F2BE325146C0B200F0E0FA30004946FE
:101E3000C0B2C9B2884201D1012000E00020DDF823
:101E40009C8040F2BF325146C0B200F0CFFA06206B
:101E500002904846C0B2FFF761FD8DF80C0048467D
:101E6000C0B2FFF7FDFC82465FF0080B4846C0B2E7
:101E7000FFF7F6FCDFF8F89101AA9AFBFBF10BFBE8
:101E800011AA5146C0B2C010C001484400F0C9FBBD
:101E9000062002903000C0B2FFF72CFD8DF80C0038
:101EA0003000C0B2FFF7C8FC82465FF0080B30007C
:101EB000C0B2FFF7C1FC01AA9AFBFBF10BFB11AA10
:101EC0005146C0B2C010C001484400F0AAFB4046D1
:101ED000C0B204281ED0082002904046C0B2FFF7CE
:101EE00031FD8DF80C004046C0B2FFF7CDFC060076
:101EF0005FF0080A4046C0B2FFF7C6FC01AA96FB95
:101F0000FAF10AFB11663100C0B2C010C0014844AA
:101F100000F087FB289E3000C0B208281ED00620A3
:101F200002903000C0B2FFF721FD8DF80C003000A8
:101F3000C0B2FFF7BDFC80465FF0080A3000C0B2B7
:101F4000FFF7B6FC01AA98FBFAF10AFB118841469B
:101F5000C0B2C010C001484400F063FB2000C0B212
:101F6000032803D22000C0B2401C00E00020220061
:101F7000D2B2521D032110F58F7000B2FFF700FCA2
:101F80002000C0B2032803D22000C0B2401C00E0F1
:101F9000002010F58F7000B2FFF7EEFB17F01F0165
:101FA0000091C7F357132200D2B2521D0321C0B2D1
:101FB000FFF786FB2000C0B2032803D22000C0B286
:101FC000401C00E0002010F58F7000B2FFF7D4FB3A
:101FD0002200D2B2521D0321C0B2FFF706FCEDB2BF
:101FE000002D05D0022D09D005D3032D09D00AE01C
:101FF0000020109007E00120109004E002201090D3
:1020000001E00320109001200E9000200F9004208A
:102010001190082012900820139001208DF8500094
:1020200001208DF853000F4D00220EA92000C0B2F0
:1020300055F8200000F034FB00212000C0B255F814
:102040002000FFF719FB2000C0B255F82000FFF771
:102050000EFB0348E4B206551DB0BDE8F08F00004A
:10206000C40E02287C070228008096980467081096
:102070000000314062F30F2262F31F42401810F05B
:10208000030308D0C91A1FD3DB0748BF00F8012D8E
:1020900028BF20F8022D130030B41446154610391D
:1020A00028BF20E93C00FAD8490728BF20E90C00E6
:1020B00048BF40F8042D890028BF20F8022D48BFF2
:1020C00000F8012D30BC7047C91818BF00F8012D69
:1020D000CB0728BF00F8012D7047000082B0002018
:1020E0000190002000900020019009E00098401C21
:1020F00000900098B0F5005FF8D30198401C019063
:102100000198B0F5805F02D200200090F1E702B0A4
:10211000704780B50100002000F0AEFD01BD2DE943
:10212000F043ADF5137D0700884616001C00002023
:10213000ADF802000020ADF8000000200290002061
:10214000ADF804000020ADF806004046FEF766FF3B
:102150000290DFF880532888002801D02869804742
:10216000DFF874030078002800F033812888002805
:1021700000F01181BDF90600411CADF806103A00CF
:10218000010089B20020EB68984747464046FEF7B9
:1021900045FF02906888A97990FBF1F0ADF8040042
:1021A0003800471C00780028FAD10020ADF8000064
:1021B0000EE07F1E38782F2802D038785C2804D1B2
:1021C000BDF80000401CADF800000298401E0290CF
:1021D000BDF80000022802DA02980028E9D502982A
:1021E000002806D47A1CDFF8F41253A800F064FF2C
:1021F0000EE0BDF80000002805D13A00B84953A808
:1022000000F05AFF04E03A00B44953A800F054FF2C
:102210000020ADF8020042E0BDF80010BDF800203B
:10222000BDF8023053AF9BB2BDF90400434313FA2B
:1022300082F0385C43AA89B25054BDF80000401CBB
:10224000ADF80000BDF8000080B2BDF9041088426E
:102250000EDA53A8FEF7E2FEBDF80020BDF802300A
:102260009BB2BDF904104B4313FA82F18842D3D2DA
:10227000002043A9BDF800208854BDF90600411C88
:10228000ADF8061043AAE97911FB00F189B20020EC
:10229000EB689847BDF80200401CADF80200BDF89D
:1022A000027053A8FEF7BAFEBDF90410B0FBF1F0BE
:1022B000401CBFB2874203D20020ADF80000C1E746
:1022C0003200884953A800F0F7FEBDF90600411C12
:1022D000ADF8061053AAE97911FB00F189B200208C
:1022E000EB689847002C74D00020ADF8020041E064
:1022F000BDF80010BDF80020BDF802309BB2BDF95A
:102300000400434313FA82F0205C43AA89B250547C
:10231000BDF80000401CADF80000BDF8000080B220
:10232000BDF9041088420EDA2000FEF777FEBDF8F2
:102330000020BDF802309BB2BDF904104B4313FAE4
:1023400082F18842D4D2002043A9BDF800208854ED
:10235000BDF90600411CADF8061043AAE97911FB4E
:1023600000F189B20020EB689847BDF80200401CDC
:10237000ADF80200BDF802602000FEF74FFEBDF987
:102380000410B0FBF1F0401CB6B2864221D200200E
:10239000ADF80000C1E74FF4807100220DF10C0987
:1023A0004846FFF767FE3800A9688847002C07D029
:1023B0000094330042464C4903A800F07DFE05E03E
:1023C00033004246494903A800F076FE03A8A968F5
:1023D00088470DF5137DBDE8F08310B51400220089
:1023E000D2B2002000F039FC200010BD38B50C003E
:1023F0001500C0B2002803D13E480078002800D163
:1024000031BD3D490878002800D0FEE70878401C1F
:10241000087000F0BBFE00232A0021003748FFF7B8
:102420007EFEFFF75BFEF6E710B514001A00C0B29F
:10243000002808D128480078002804D00B0021008B
:102440002F48FFF76CFE10BD002101804FF6FF7191
:1024500041808180FF218171C17100218160002153
:10246000C1600021016170471A4902880A804288D0
:102470004A8082888A8082798A71C279CA71826828
:102480008A60C268CA600069086101201249087048
:10249000704700B585B06846FFF7D6FF194802902F
:1024A0006846FFF7E1FF05B000BD80B5FFF7F1FF1B
:1024B000002300225FF4E131002000F011FD4023F1
:1024C000114A00210A4801F08EF80121002000F095
:1024D00088FC01BD7C0E0228E00E0228F469081079
:1024E000C8690810006A0810E468081084690810B8
:1024F0004C0E0228B6070228E10E0228D8690810FF
:102500000C6A081013210810880D022830B4614BA2
:102510001818C009604C14EB001404290DD223686C
:102520001F25C8008540AB43D2B212F01F02C9007C
:1025300012FA01F1194321600CE0091F63681F259D
:10254000C8008540AB43D2B212F01F02C9008A40D6
:102550001A43626030BC7047002A04D1012212FA8B
:1025600001F1416003E0012212FA01F1816070473C
:1025700010B48900436C0F248C40A34312F00F0267
:1025800012FA01F11943416410BC704710B4836C16
:1025900001248C40A34312F0010212FA01F1194305
:1025A000816410BC704710B4C36C01248C40A343F9
:1025B00012F0010212FA01F11943C16410BC704714
:1025C00010B449001031C36C03248C40A34312F0B3
:1025D000030212FA01F11943C16410BC7047426949
:1025E000012212FA01F141614069704710B4836918
:1025F00001248C40A34312F0010212FA01F11943A5
:10260000816110BC704710B44900036C03248C40F6
:10261000A34312F0030212FA01F11943016410BC42
:102620007047F8B505000E0014000027002D2ED0CD
:10263000002C2CD0226831002800FFF78DFF227A71
:1026400031002800FFF762FF626931002800FFF7C0
:102650009DFFA26931002800FFF7A5FFE269310064
:102660002800FFF7ADFF626831002800FFF780FF08
:10267000E26831002800FFF7C6FF31002800FFF7AD
:10268000AEFF226931002800FFF7B0FF00E0034FE2
:102690003800F2BD0000CFBF0000304001005A00FA
:1026A0002DE9F041DFF8D0311C00DFF8D051D5F82A
:1026B00000C0DFF8CC512D68DFF8C8613668DFF85C
:1026C000C8713F685FF0000E5FF0000E002800F058
:1026D000D080002900F0CD804C68002C01D18C689E
:1026E00005E04C68022C01D1002400E00224D1F85E
:1026F00010E0D1F81480C64502D3D1F810E001E013
:10270000D1F814E0BEF1090F08D23CF4404C91F826
:102710002130002B12D05CF4807C11E0BEF1110F4F
:1027200003D2012363F38F3CF1E7BEF1210F03D203
:10273000022363F38F3CEAE718009BE03CF4807CC3
:10274000CB685B1E13F00F035FEA1C1C5FEA0C1CD6
:1027500053EA0C0C012363F3196CC0F800C00B7F23
:10276000002B01D0002300E0012363F300054B6838
:102770001B0963F34105CB7E63F304154B7E63F3C2
:1027800045150B68012B01D1012300E0002363F301
:10279000DF7523005B0863F3820564F3C3054B7F99
:1027A00063F308258B7F63F34925CB7F63F38A2589
:1027B00091F8203063F3CB250B7913F0030363F317
:1027C000196505620B7E63F308278B7E63F3492747
:1027D0000B695B1E13F01F037F097F011F43C0F8C5
:1027E000007391F8243003F0FF0310F5417425685D
:1027F0002D0A2D022B4323600B7E63F308264B69C1
:102800005B1E13F01F03760976011E43C0F80062B9
:1028100091F82C3003F0FF0310F5017425682D0AA0
:102820002D022B4323600B6BC0F8883F8B6AC0F8E6
:10283000C83F91F8383010F57064256863F3492576
:10284000256091F8391010F574631C6861F3CB248E
:102850001C600021C0F8C81E002A09D000201060AA
:10286000002090610020D0600020D06107481062F5
:1028700000242000BDE8F0810140AA004C6A081045
:10288000506A0810546A0810586A0810EFCDAB005F
:10289000022801D3012010E00B00DBB2042B01DB86
:1028A00001200AE0DFF8CC3703EB8000C9B2405CBE
:1028B000824201D3012000E000207047F8B50400F7
:1028C0000F0015001E00022C01D301202AE02A006F
:1028D0003900C9B22000FFF7DBFF012801D1012038
:1028E00020E006983900C9B202291ED1B6F5803F12
:1028F00019D2202817D24FF4C052DFF87C17630397
:102900000B4403EB850313441F6866F317271F600E
:102910006403214401EB850111440A6860F3C70296
:102920000A600020F2BD0120FCE7FFB2032F1FD197
:10293000B6F1807F1AD2202818D24FF4E052DFF887
:10294000381763030B4403EB850313441F6807F038
:10295000FF0757EA06271F606403214401EB850146
:1029600011440A6860F3C7020A60DAE70120D9E778
:102970000120D7E700B20012C0B27047F8B50500D9
:102980000E001700280000B2FFF7F4FF040020003B
:10299000C0B2022801D3012024E03A003100C9B2BC
:1029A0002000C0B2FFF774FF012801D1012019E017
:1029B000DFF8C4162000C0B2400308442A00D2B297
:1029C00000EB8200D0F8000CF6B266F3092067F342
:1029D0000700E4B264032144EDB201EB8501C1F8C4
:1029E000000C0020F2BD70B504000D001600022C92
:1029F00001D301201DE032002900C9B22000FFF7F9
:102A000047FF012801D1012013E0DFF86C166003B5
:102A1000085850F0004050F0407050F47F00EDB284
:102A200065F3092066F307006203885064030859C0
:102A3000002070BDD0F840037047D0F80803C005EF
:102A4000C00D7047C0F840127047D0F80802C005AA
:102A5000C00D7047D0F80802C0F3C030704738B5D9
:102A600005002800FFF7F1FF04002800FFF7F2FF40
:102A70000419002C01D1012000E00020C0B232BDB9
:102A8000C0F8C81F7047D0F8C80F7047C0F8881F3B
:102A90007047D0F8880F7047016851F0004101601D
:102AA000704738B504001500C9B2002906D00229C4
:102AB0001ED010D3042935D027D340E0DFF8BC0561
:102AC000A06001202073112060734FF48C70E081AE
:102AD0001220208239E0DFF8A805A06001202073D1
:102AE0001120607340F21D10E0816B2020822CE0E9
:102AF000DFF89005A06001202073112060734FF46F
:102B00008E70E0816A2020821FE0DFF87C05A060E3
:102B1000022020731120607340F21B10E0816920B5
:102B2000208212E0DFF86405A060012020731320EA
:102B300060734FF48D70E0816820208205E07C2274
:102B4000DFF84C150020FFF751FCEDB2002D06D048
:102B5000022D1ED010D3042D35D027D340E0DFF84E
:102B60001C05206000202071112060714FF48C70D2
:102B7000E0811220208239E0DFF804052060002087
:102B800020711120607140F21D10E0816B202082C5
:102B90002CE0DFF8F004206000202071112060712B
:102BA0004FF48E70E0816A2020821FE0DFF8D804A5
:102BB0002060012020711120607140F21B10E08123
:102BC0006920208212E0DFF8C40420600020207118
:102BD000132060714FF48D70E0816820208205E041
:102BE000A822DFF8AC140020FFF700FC31BD10B5BF
:102BF000C0B2002806D002280AD006D304280DD07F
:102C000009D30EE0DFF88C4411E0DFF88C440EE0CD
:102C1000DFF888440BE0DFF8884408E0DFF88444FC
:102C200005E0BD22DFF868140020FFF7DFFB20007D
:102C300010BD38B50400DFF87054C9B22000C0B22E
:102C400055F82000FFF7FEFE2000C0B255F8200026
:102C5000FFF705FF0028F7D031BD70B505000E0065
:102C6000140006E031782800C0B2FFF7E2FF641ECE
:102C7000761C002CF6D170BD38B504000D0005E0BF
:102C800029782000C0B2FFF7D4FF6D1C28780028F7
:102C9000F6D131BD70B504000D000020DFF80864E6
:102CA0002000C0B256F82000FFF7C7FE002807D06A
:102CB000E4B256F82400FFF7BDFE2870012000E0C2
:102CC0000020C0B270BD70B505000C00DFF8D863FD
:102CD0002800C0B256F82000FFF7DBFE4008400095
:102CE00001002800C0B256F82000FFF7CFFE2800F0
:102CF000C0B256F82000FFF7CCFE30F00200010011
:102D00002800C0B256F82000FFF7C0FE2800C0B26D
:102D100056F82000FFF7BDFE30F02000010028002B
:102D2000C0B256F82000FFF7B1FE2800C0B256F836
:102D30002000FFF7AEFE30F0400001002800C0B2D6
:102D400056F82000FFF7A2FE2800C0B256F8200077
:102D5000FFF79FFE30F0100001002800C0B256F8C7
:102D60002000FFF793FE2800C0B256F82000FFF7BE
:102D700090FE30F4807001002800C0B256F82000A8
:102D8000FFF784FE2800C0B256F82000FFF781FE4E
:102D900030F4806001002800C0B256F82000FFF730
:102DA00075FE002C0ED02800C0B256F82000FFF7A8
:102DB0006AFE50F400700100EDB256F82500FFF7EE
:102DC00065FE0DE02800C0B256F82000FFF75BFE5C
:102DD00030F400700100EDB256F82500FFF756FE02
:102DE00070BD70B505000C00DFF8BC622800C0B2F1
:102DF00056F82000FFF747FE400840000100280079
:102E0000C0B256F82000FFF73BFE2800C0B256F8CB
:102E10002000FFF738FE30F0080001002800C0B2A3
:102E200056F82000FFF72CFE2800C0B256F820000C
:102E3000FFF729FE30F0200001002800C0B256F84C
:102E40002000FFF71DFE2800C0B256F82000FFF753
:102E50001AFE30F4807001002800C0B256F820003D
:102E6000FFF70EFE2800C0B256F82000FFF70BFE59
:102E700030F4007001002800C0B256F82000FFF7BF
:102E8000FFFD2800C0B256F82000FFF7FCFD30F42B
:102E9000006001002800C0B256F82000FFF7F0FDE6
:102EA000002C0ED02800C0B256F82000FFF7EBFD32
:102EB00050F004000100EDB256F82500FFF7E0FDE8
:102EC0000DE02800C0B256F82000FFF7DCFD30F01E
:102ED00004000100EDB256F82500FFF7D1FD70BDEA
:102EE0002DE9F841A7B005000F00160028003100B9
:102EF000C0B2C9B2884201D1012000E000201C000C
:102F0000DFF88C814FF4CE724146C0B2FFF76EFA03
:102F100028002100C0B2C9B2884201D1012000E0DE
:102F2000002040F29D124146C0B2FFF75FFA02A8AE
:102F3000142100F077FB342100220DF1680840468F
:102F4000FFF798F84C2100220DF11C084046FFF7CE
:102F500091F8FF003A00002354480021FEF724FABC
:102F600007002200D2B23100C9B202A8FFF799FDD2
:102F700008201B909DF80D008DF870001AAA9DF88E
:102F80000C100298FFF74DFB06201B909DF81500D2
:102F90008DF870001AAA9DF814100498FFF741FBF1
:102FA00000200790082008900820099002200B902C
:102FB00000200C9000201290002014903A4C280021
:102FC000C0B254F8200000F073FC39492A00D2B294
:102FD000382042430A4407A92800C0B254F8200010
:102FE00000F024FB2800C0B254F82000FFF754FD85
:102FF0002A00D2B20321BDF91600FFF7BFFCBDF9CC
:103000001600FFF7B7FC17F01F010091C7F3571325
:103010002A00D2B20321C0B2FFF750FCBDF916005E
:10302000FFF7A8FC2A00D2B20321C0B2FFF7DBFCF5
:10303000BDF91800ADF800000320ADF80200012032
:103040008DF8040007221B482900C9B250F821104E
:10305000684600F0A7F800212800C0B2FFF7C1FEC3
:1030600000212800C0B2FFF72EFE28B0BDE8F08195
:1030700000000000246A08100000044000003140F5
:1030800000023140000531408008314000073140E6
:103090003C6708100000604000006540000064408C
:1030A0000000634000006240A0070228008096985C
:1030B000B80902288C0702280CB430B583B00A4640
:1030C00006A90291044600250194009502AB01A9CE
:1030D000084878441E30FCF7D6FF019A1570002886
:1030E0004EBF04460198041B204603B030BC5DF877
:1030F0000CFB00BF5FDFFFFF010009B2002908D40D
:10310000012210F01F018A401B4900B2400941F81A
:1031100020207047010009B2002908D4012210F0D4
:103120001F018A40154900B2400941F8202070472C
:10313000020012B2002A04D44901114A00B211540B
:1031400007E049010F4A00B210F00F00104400F8E8
:10315000041C7047002800D162B60B480168491C66
:103160000160704772B608490868002802D00868F4
:10317000401E08600868704700E100E080E200E05F
:1031800000E400E018ED00E0C00E022880B5FFF773
:10319000E9FF00F0D5FB01BD80B5C9B200B2FFF771
:1031A000C7FF01BD70B504000D001600200000F03F
:1031B000D7FB2900B4F9000000F011FC3100C9B2BE
:1031C000B4F90200FFF7E8FFB4F90200FFF7A2FF2D
:1031D000B4F90200FFF790FF70BD00008268891803
:1031E000816003E082684169521A826081684269A5
:1031F0009142F7D27047C2688918C16003E0C26883
:103200004169521AC260C16842699142F7D270475F
:1032100070B50400002C01D0012000E000205422F1
:10322000DFF8FC13C0B2FFF7E1F80025207850F07A
:10323000010020700020A0600020E0606069206133
:103240006078002803D0022810D007D315E0616908
:10325000002266683000FEF70DFF0EE0616949004C
:10326000002266683000FEF705FF06E0616989000C
:10327000002266683000FEF7FDFE00202070280066
:10328000C0B270BD10B50400002C01D0012000E0D8
:1032900000207022DFF88813C0B2FFF7A7F860693A
:1032A0002169401A10BD2DE9F84305001600002DD4
:1032B00001D0012000E000200C00AA22DFF86013FA
:1032C000C0B2FFF793F800270020002C01D103279C
:1032D000B5E0287810F0050F01D00427AFE028787A
:1032E00050F0040028702869B042C0F0A380D5F8DF
:1032F0001480A868B8EB0008B04567D26878002849
:1033000003D0022841D01FD390E0424621006868D4
:10331000AB6800EB03094846FDF7CCFE41462800A8
:10332000FFF75CFFB6EB080204EB08016868AB68C6
:1033300000EB03042000FDF7BDFEB6EB0808414694
:103340002800FFF74BFF71E05FEA48022100686840
:10335000AB6800EB43094846FDF7ACFE4146280048
:10336000FFF73CFFB6EB0802520004EB4801686827
:10337000AB6800EB43042000FDF79CFEB6EB0808A9
:1033800041462800FFF72AFF50E05FEA880221004B
:103390006868AB6800EB83094846FDF78BFE414641
:1033A0002800FFF71BFFB6EB0802920004EB880130
:1033B0006868AB6800EB83042000FDF77BFEB6EB8A
:1033C000080841462800FFF709FF2FE06878002829
:1033D00003D002281DD00ED328E0320021006868F7
:1033E000AB6800EB03042000FDF764FE3100280009
:1033F000FFF7F4FE1AE0720021006868AB6800EB8A
:1034000043042000FDF756FE31002800FFF7E6FEDA
:103410000CE0B20021006868AB6800EB8304200078
:10342000FDF748FE31002800FFF7D8FE2869861B0B
:103430002E6100E00527287810F0FB002870380086
:10344000C0B2BDE8F2832DE9F04705000E001F0071
:10345000002D01D0012000E000201400DFF8C08121
:1034600040F25B124146C0B2FEF7C0FF002C01D013
:10347000012000E000204FF4AE724146C0B2FEF7DA
:10348000B5FF5FF0000800200020002E02D15FF0A1
:1034900003088BE0297811F0030F03D020605FF060
:1034A00006089CE02800FFF7EDFE2168884209D25B
:1034B00020605FF00708002804D1287810F0F7009A
:1034C00028708CE0287850F008002870D5F8149007
:1034D000E868B9EB00092068814522D368780028A4
:1034E00003D0022813D008D35CE022686868E9683A
:1034F00001443000FDF7DEFD54E0226852006868A8
:10350000E96800EB41013000FDF7D4FD4AE0226894
:1035100092006868E96800EB81013000FDF7CAFDA0
:1035200040E06878002803D0022827D011D339E082
:103530004A466868E9680144B2465046FDF7BAFD5C
:103540002268B2EB090269684E443000FDF7B2FD13
:1035500028E05FEA49026868E96800EB4101B24689
:103560005046FDF7A7FD2268B2EB090252006968D8
:1035700006EB49063000FDF79DFD13E05FEA890286
:103580006868E96800EB8101B2465046FDF792FD9C
:103590002268B2EB09029200696806EB89063000E6
:1035A000FDF788FD287810F0F7002870FFB2002F93
:1035B00015D128780B2802D15FF002080FE0287897
:1035C00050F00200287021682800FFF714FE2969D6
:1035D000206841182961287810F0FD0028704046C5
:1035E000C0B2BDE8F087F8B504000E0017001D005A
:1035F000002C01D0012000E000204FF407720849A0
:10360000C0B2FEF7F3FE00206760002121706670F3
:103610000021A1600021E16025616561C0B2F2BDB9
:10362000CC660810002200F0F1B900002DE9F44F3B
:10363000DFF8D822DFF8D8321B68DFF8D8422468D8
:10364000DFF8D4522D68DFF8D4623668DFF8D07224
:103650003F68DFF8D0C2DCF800C0DFF8CCE2DEF86B
:1036600000E0DFF8C882D8F80080DFF8C492D9F80B
:103670000090DFF8C0A2DAF800A0002800F0158161
:10368000002900F012810A68022A06D191F826204A
:10369000002A02D15FF0000B03E0D1F804B0BBF1C7
:1036A000010B91F82420002A01D0012200E0002221
:1036B00062F3104333F440436BF30303022262F3DB
:1036C000196303600A7812F0030262F31964046458
:1036D00091F82520002A01D0012200E0002262F3A7
:1036E0008615CA7E002A01D0012200E0002262F382
:1036F0008A254A7E002A01D0012200E0002262F3DE
:1037000008258A7E002A01D0012200E0002262F30F
:1037100049258A6B521E12F00F0262F313450A69A3
:10372000521E12F00702ED08ED0015434A6962F3DC
:1037300004154A69520862F3451585640A7B002A1C
:1037400001D0012200E0002262F308260A7E002A4E
:1037500001D0012200E0002262F349268A68521E4D
:1037600012F01F02760976011643C0F800630A7F43
:1037700002F0FF023F0A3F02174391F8202002F0B7
:10378000FF0262F31747C0F8107391F82720002A50
:1037900001D0012200E0002262F3082C0A69521EC7
:1037A00012F007025FEADC0C5FEACC0C52EA0C0C68
:1037B0004A6962F3041C4A69520862F3451CC0F866
:1037C00044C00A7B002A01D0012200E0002262F3FB
:1037D000082E8A68521E12F01F025FEA5E1E5FEA20
:1037E0004E1E52EA0E0E0A68012A01D1012200E0A3
:1037F000002262F3104EC0F800E291F83C2002F083
:10380000FF025FEA18285FEA082852EA0808C0F8B1
:10381000048391F82820002A01D0012200E0002230
:1038200062F35969CA6A012A01D1012200E000222B
:1038300062F318694A6B012A01D1012300E00023D9
:10384000009A63F3104991F8303003F0FF035FEA08
:1038500019295FEA092953EA0909C0F8509091F83B
:10386000443003F0FF035FEA1A2A5FEA0A2A53EAA8
:103870000A0AC0F804A28B6CC0F8883F096CC0F833
:10388000C81F002A10D000205060002010600020C7
:1038900090600020D060002010620020D0620020E4
:1038A0001063DFF89400506300221000BDE8F28F2F
:1038B000DFF8881001605FF4401101640021816429
:1038C00040F20711C0F800130022C0F804230022C0
:1038D000C0F8102300224264C0F800120021C0F892
:1038E0000412002101650021C0F8C81E0021C0F8A3
:1038F000881E0021C0F8C81F0021C0F8881F0021C1
:10390000C0F8081F0021C0F8481F70470160AA00D6
:103910005C6A0810606A0810646A0810686A081017
:103920006C6A0810706A0810746A0810786A0810C7
:103930007C6A0810806A0810EFCDAB000F0000030E
:10394000002007E00549C2018A5822F00042C30165
:10395000CA50401C3F28F5DB70470000000058406B
:1039600030B40021234A1368234A1468002832D057
:10397000224A1568C5F303250E2D0FD01268C2F335
:1039800003220D2A28D1827812F00F022409240183
:1039900014430279002A15D0012214E0827812F033
:1039A0000F021B091B0113430279002A01D00122D7
:1039B00000E0002262F3DF73114AB0F9000042F820
:1039C000203009E0002262F3DF740E4AB0F90000F3
:1039D00042F8204000E00649080030BC70470A4B1E
:1039E0001A68002A03D01A6800B242F82010704703
:1039F00001005600846A0810886A08100000204000
:103A000000A0204000C02040EC06022800B500BF06
:103A1000130096469446103928BFA0E80C50FAD8F7
:103A20005FEA417C28BF0CC048BF40F8042BC9079F
:103A300028BF20F8022B48BF00F8012B00BD000072
:103A4000DFF8C4110868C0F34000002801D002204C
:103A500002E0086810F001007047DFF8B00100686C
:103A600010F0010070470000C21E022A01D301209D
:103A700002E0C01E0860002070471CB5FF246946A4
:103A8000FFF7F2FFC0B2002802D02000C0B207E06A
:103A9000DFF8FC01009950F8210010F00100C0B2DD
:103AA00016BD0000002801D0032801D3012002E048
:103AB000401E0860002070471CB5FF246946FFF7D0
:103AC000F1FFC0B2002802D02000C0B208E0DFF849
:103AD000C401009909010844C06810F00100C0B297
:103AE00016BD0000DFF8BC010068800810F001007E
:103AF000704738B504002000C0B2082811D3DFF8A1
:103B000098511822DFF89411280000F00DFC0020D5
:103B1000E87540F65B00DFF888110860002000F0CF
:103B20003BFCDFF8CC112000C0B251F82000C0F3FC
:103B30000020002805D0E4B251F8240010F00F0056
:103B400000E0FF2032BD38B504002000C0B20828D4
:103B500011D3DFF844511822DFF84011280000F09B
:103B6000E3FB0020E8754FF40960DFF834110860CA
:103B7000002000F011FCDFF87801E4B250F82400D6
:103B8000C0F30110C0B232BDDFF868211368C3F37F
:103B9000072303601068C0F3C40008607047DFF8B3
:103BA00058211368C3F3072303601068C0F3C400EF
:103BB0000860704738B50400072C11D3DFF8D850DF
:103BC0001822DFF8C411280000F0AEFB0020E875D1
:103BD0004FF4CE70DFF8C8100860002000F0DCFB66
:103BE000DFF8A00150F8240010F00700010009B22E
:103BF000042907D1DFF8880150F8240010F01F00D5
:103C000050F4807000B232BD241526404015264085
:103C1000DFF8B01209688A03920B0260090E11F0F6
:103C20000101C171DFF8A01209680A00D204D20CA8
:103C300082800A00120C02F0FF020281090C01F0DE
:103C4000FF014181DFF84411096811F00F0202738E
:103C50000A00C2F3031242730A00120AD204D20C01
:103C6000C281090F11F003010174DFF864130968C0
:103C70000A00120A12F0070282710A00120CD20521
:103C8000D20D4282890F11F00101017570470000C9
:103C90004016264000192640040E0228006608102F
:103CA000940E0228100027401CB50C006946FFF74F
:103CB000DBFE0100C9B2002901D0C0B217E0DFF875
:103CC000B404009950F8210010F07F012160C0F386
:103CD00004216160C0F30441A1600100090F11F0EB
:103CE00003016173C00E10F001002073002016BDA7
:103CF0004012264008002040080420401CB50C005B
:103D00006946FFF7CFFE0100C9B2002901D0C0B259
:103D100035E0DFF8101500980001085800F0FF02A8
:103D20002260C0F304226260C0F30442A260000F6C
:103D300010F003002073009800010844426810004E
:103D4000C00F6073C2F30270002801D0012000E0B0
:103D50000020A07322F07F422261009800010844F5
:103D600080680100C90F21750100090E11F00101E1
:103D70006175A075000C10F00700E075002016BDFD
:103D800000012640001226404866081038152640DB
:103D900080B50100DFF868051822FDF79BF90120C6
:103DA000DFF860150870002002BDDFF85C150968B7
:103DB000C90F002908D0DFF84C150978002907D170
:103DC0000021016003207047002101600320FAE711
:103DD000DFF82C15096801600020F4E710B5040035
:103DE000FFF72EFE002803D10020206003200DE005
:103DF000DFF810050078002805D0DFF8040580689A
:103E00002060002002E000202060032010BD0000A0
:103E1000DFF8F0140978002905D0DFF8E4144968C8
:103E20000160002002E00021016003207047DFF8FC
:103E3000DC140968C90F002908D0DFF8C814097814
:103E4000002907D100210160032070470021016093
:103E50000320FAE7DFF8A814C96801600020F4E73E
:103E6000DFF8AC140968C90F002908D0DFF89414F2
:103E70000978002907D10021016003207047002143
:103E800001600320FAE7DFF8781409690160002077
:103E9000F4E710B50400FFF725FE002803D1002049
:103EA000206003200DE0DFF85C040078002805D0D6
:103EB000DFF84C0440692060002002E00020206010
:103EC000032010BD301526403415264010B50C00D7
:103ED000C0B2FFF76FFE00280ED0012810D00228D4
:103EE00012D0B0F5887F13D040F21111884213D060
:103EF000B0F58A7F14D017E02000FFF756FF16E0D8
:103F00002000FFF785FF12E02000FFF767FF0EE0BB
:103F10002000FFF78CFF0AE02000FFF7BAFF06E061
:103F20002000FFF79DFF02E000202060032010BD6D
:103F300080B501000020FFF7C9FF02BD80B5032254
:103F4000D2B2824203D200200860012003E0401C6C
:103F5000C0B2FFF7BBFF02BD18B587B004006846CA
:103F6000FFF7E6FF0100C9B2002903D0002121605C
:103F7000C0B22BE001A8FFF74BFE9DF81400022809
:103F800003D100982060002020E0DFF8880300685B
:103F9000C00F002808D0FFF760FDC0B2002807D18D
:103FA00000202060032011E00098206000200DE038
:103FB000009901984143BDF80800B1FBF0F09DF86D
:103FC0000B10491CB0FBF1F02060002008B010BDC0
:103FD0003C152640F0B58BB005000C006946280062
:103FE000C0B2FFF7ABFF0100C9B2002903D0002126
:103FF0002160C0B2BCE02800C0B202284CD307A99F
:104000002800C0B2401CFFF74FFEC0B2002811D0FC
:10401000DFF804631822DFF80413300000F084F99D
:104020000020F07540F66310DFF8F41208600020FD
:1040300000F0B2F94F482900C9B200EB810050F8F6
:10404000080CC00F002807D09DF82900022807D1CE
:104050000098206000208BE000982060002087E01E
:10406000EDB26D1C2800FFF708FD0100C9B2002960
:1040700002D0C0B2FF2803D100202060032077E0E7
:104080000099079841430898B1FBF0F00999B0FBFB
:10409000F1F0206000206BE001A92800C0B2401CB4
:1040A000FFF72CFEC0B2002811D0DFF86C62182296
:1040B000DFF86812300000F037F90020F07540F6A4
:1040C0007F10DFF85C120860002000F065F95548A9
:1040D0002900C9B209014058C00F002807D09DF837
:1040E0001000022807D100982060002040E00098CE
:1040F000206000203CE0EDB26D1C2800FFF7DCFCE6
:104100000100C9B2002902D0C0B2FF2803D10020AB
:10411000206003202CE09DF8110001281DD1009A99
:104120000023019E00273F0647EA1627360605981A
:10413000002136184F41A6FB020106FB031107FBC5
:104140000211029A039BA3FB0223FDF72DF9000E37
:1041500040EA0120090E206009E0009901984143DE
:104160000298B1FBF0F00399B0FBF1F02060002061
:104170000BB0F0BD0016264010B50323421E04000C
:10418000E4B2002C03D10800FFF7E6FE0CE01400B7
:10419000DBB2E4B2A34204D31000C0B2FFF71AFFAF
:1041A00002E0C0B2FFF792FE10BD38B505000C006A
:1041B0002800C0B2FFF79DFC0100C9B2FF2904D15D
:1041C0002000FFF7F2FDC0B21BE06946C0B2FFF766
:1041D000D3FF0100C9B2002903D000212160C0B281
:1041E0000FE02800C0B2FFF7AEFCC0B2002805D037
:1041F00002280BD006D303280CD00FE000982060D3
:10420000002032BD009840082060F9E7009880083F
:104210002060F5E70098C0082060F1E700202060EA
:104220000320EEE7001926401FB5040002A9012073
:10423000FFF7BBFF0100C9B2002903D000212160B4
:10424000C0B21AE0694601A8FFF79EFC0198002160
:10425000421C71F1FF335B0143EAD26352010098C3
:10426000002112184B4102980021490141EAD06116
:104270004001FDF799F82060002004B010BD1FB583
:10428000040002A90120FFF790FF0100C9B2002934
:1042900003D000212160C0B21AE0694601A8FFF7EF
:1042A0007EFC01980021421C71F1FF335B0143EA5F
:1042B000D26352010098002112184B41029800214C
:1042C000490141EAD0614001FDF76EF8206000200D
:1042D00004B010BD80B5DFF84C100A68C2F30322A9
:1042E0000E2A07D00968C1F303210D2905D1FFF774
:1042F000C6FF02BDFFF798FFFBE70120F9E70000CA
:10430000EC0D0228DC0E0228181526400815264060
:104310000C15264030152640040E02284866081069
:10432000940E02280000204001B58B071AD18307A4
:1043300024D1121F21D351F8043BA3F1013C2CEAF4
:10434000030C1CF0803C04BF40F8043BF1E79CFAEE
:104350008CFCBCFA8CF1C1F118018B40CB4040F8C9
:10436000043B13E0042A09D311F8013B521E00F864
:10437000013B5BB18B07F7D1D9E7121D5AB111F898
:10438000013B521E00F8013B03B1F8D111001CBFE4
:104390000022FDF773FE01BD01BEFEE780B5234A92
:1043A00023490B6893423ED00A60224A12684A624F
:1043B000214A8A6202684A6042688A608268CA60EA
:1043C000C2680A6102694A6142698A618269CA6196
:1043D000C2690A62F1EE102A12F0900F23D0174A38
:1043E0008A62026ACA62426A0A63826A4A63C26A6B
:1043F0008A63026BCA63426B0A64826B4A64C26B53
:104400008A64026CCA64426C0A65826C4A65C26C3A
:104410008A65026DCA65426D0A66826D4A66C26D22
:104420008A66006EC86600F00BF801BDFAF9F8F76D
:10443000500C022828ED00E0A4A3A2A1ABAAA9A8D1
:10444000FEE7000081B0F6EE000A60EE200A8DED76
:10445000000A0098DFF87815B1EB600100919DED3E
:10446000000A60EE800AB7EE081A00EEC01A21EECC
:10447000000A01B07047000038B5DFF81045002091
:104480002060002060600020A060002531E000F086
:10449000F4FA00F011FBDFF8F804B0F9000000EEC8
:1044A000100AB8EEC00AD4ED000A30EE200A84EDFE
:1044B000000ADFF8E004B0F9000000EE100AB8EEE0
:1044C000C00AD4ED010A30EE200A84ED010ADFF8BB
:1044D000C804B0F9000000EE100AB8EEC00AD4ED2E
:1044E000020A30EE200A84ED020A052000F018FCD2
:1044F0006D1C280080B2B0F5FA7FC8DB94ED000A8D
:10450000DFED6F0A80EE200A84ED000A94ED010AC7
:10451000DFED6B0A80EE200A84ED010A94ED020AB9
:10452000DFED670A80EE200A84ED020A94ED030AAB
:10453000DFED630A80EE200A84ED030A94ED040A9D
:10454000DFED5F0A80EE200A84ED040A94ED050A8F
:10455000DFED5B0A80EE200A84ED050A0120DFF81A
:104560007414087031BD0000DFF83004DFF8301437
:10457000B1F9001000EE101AB8EEC00ADFEDB90A6A
:1045800080EE200A80ED030ADFF81814B1F900105C
:1045900000EE101AB8EEC00ADFEDB20A80EE200A73
:1045A00080ED040ADFF80014B1F9001000EE101AD3
:1045B000B8EEC00ADFEDAB0A80EE200A80ED050AF6
:1045C0009FEDA90ADFEDA90ADFF8C013DFF8C023C9
:1045D000B2F9002001EE102AB8EEC11AD1ED001A8E
:1045E00031EE611A81EE001A21EE201A80ED001AD8
:1045F000E84AB2F9002001EE102AB8EEC11AD1ED56
:10460000011A31EE611A81EE001A21EE201A80EDB6
:10461000011AE14AB2F9002001EE102AB8EEC11ADF
:10462000D1ED021A31EE611A81EE000A20EE200A65
:1046300080ED020A9FED8E0AD0ED010A90ED021A7C
:1046400000EEC01A80ED021A90ED020ADFED890A31
:10465000B4EE600AF1EE10FA0ADB90ED020ADFED2B
:10466000860AB4EE600AF1EE10FA01D500218160ED
:104670009FEDCE0AD0ED000AF4EE400AF1EE10FAFA
:104680000ADBD0ED000A9FEDD41AF4EE410AF1EEF8
:1046900010FA01D500210160D0ED010AF4EE400AC4
:1046A000F1EE10FA0ADB90ED010ADFEDCB0AB4EE71
:1046B000600AF1EE10FA01D5002141607047000058
:1046C0000000FA4310B52DED108B2DED011A83B0CB
:1046D000B0EE40AAB0EE608AF0EE618AB0EE429A87
:1046E000F0EE629ADFEDB2AAB24C94ED00BAD4EDCE
:1046F00001BA94ED02CAD4ED03CA2BEE0BDA6BEECD
:104700002BDA2BEE0C0A8DED010A2BEEAB0A8DEDA8
:10471000000A2BEEACEA6CEE0CFA6CEE2CEA2CEEF6
:10472000ACFA28EEA80A09EE090A09EEA90AFFF771
:1047300089FEB0EE401A28EE810A69EE010A29EEE0
:10474000811AB0EE002ADDED011A7EEE611A61EEEB
:10475000821A7DEEAE2A22EE822ADDED002A7DEE5F
:10476000622A72EEEF2A72EE8F2A20EEA23A01EE52
:10477000423A21EE211A00EE621A20EE020A00EE01
:10478000E10A8D48D0ED000A4AEE830AC0ED000A26
:104790008A49D1ED000A4AEE810AC1ED000A884A31
:1047A000D2ED000A4AEE800AC2ED000A854A8B4B20
:1047B00093ED000A00EE03AA92ED000AD0ED000A84
:1047C00000EE20AA93ED000A00EE018A92ED000AA5
:1047D000D1ED000A00EE208A2BEECA0A0CEE480A40
:1047E000DDED030A0CEEE00A00EE2ABA2BEE0A0A0F
:1047F000DDED030A0CEE200A0CEEC80A40EE2ABAE0
:104800002BEE080ADDED030A0BEEE00A0CEE8A0A35
:1048100000EE2ACA9DED030A2BEE000A0BEE880A71
:104820000CEE4A0A40EE2ACA2BEE0B0A0BEEAB0A3C
:104830000CEE0C0A0CEEAC0AFFF704FE6BEE000A5D
:10484000C4ED000A6BEE800AC4ED010A6CEE000AAA
:10485000C4ED020A2CEE800A84ED030A04B0BDEC1C
:10486000108B10BD001080C5CDCC644135FA8E3C54
:10487000EC51B8BDEB5138BEEC51383E10B52DEDC2
:10488000088B00F019F900F0F8F8FFF76DFE434CC3
:10489000D4ED052A94ED042AD4ED031A94ED021AFE
:1048A000D4ED010A94ED000AFFF70CFF414890EDAA
:1048B000009AD0ED019A90ED02AAD0ED03AA9FEDE7
:1048C000428BB0EE00BAF8EE00BA29EEAB0A20EE49
:1048D0002A0A69EE0B0A00EE8A0AB7EEC00A00F057
:1048E000AFFA20EE080B9FED3E2B80EE020BB7EEE9
:1048F000C00B84ED060A29EEAB0A20EE290A6AEE07
:104900000B0A00EECA0AF7EE000A30EE200AB7EEF4
:10491000C01A2AEE0B0A20EE2A0A69EE0B0A00EEF4
:10492000A90AB7EEC00A00F0CFFA20EE080B9FEDFF
:104930002C2B80EE020BB7EEC00B84ED070A2AEE9B
:104940002B0A20EE0A0A6AEE8B0A00EEEA0AF7EE5C
:10495000000A30EE200AB7EEC01A29EE8B0A20EECC
:104960000A0A69EE0B0A00EEAA0AB7EEC00A00F0C6
:10497000ABFA20EE080B9FED1A2B80EE020BB7EE80
:10498000C00B84ED080ABDEC088B10BD1C0E02287C
:10499000D00E0228D20E0228D40E0228C80D0228FA
:1049A000D60E0228D80E0228DA0E022809D7A3BC98
:1049B0006F12033AF0060228980E02289C0E022875
:1049C000A00E0228040702280000000000806640B4
:1049D000DF59375FDD0E02280AD7A33C0007022803
:1049E00000000040FB21094080B50A000821684B07
:1049F0001960D2B20100C9B20220FDF777F8082091
:104A00006449086001BD80B501000820604A10605B
:104A100051F08001C9B20220FDF7DCF808215D4A9F
:104A20001160C0B202BD10B513000822584C2260BC
:104A30000A0050F080000100C9B20220FDF73FF9E2
:104A400008205449086010BD70B5002000250026DC
:104A50003000461C80B2B0F5807F0ADA0F20FFF7E5
:104A6000D2FF0400012000F05BF9E4B26B2CEFD11F
:104A700000E001252800C0B270BDE0B506226946FD
:104A80002820FFF7D0FF9DF801009DF8001051EAA3
:104A90000021414801809DF803009DF8021051EA71
:104AA00000213E4801809DF805009DF8041051EA60
:104AB00000213B48018007BDE0B50622694622205F
:104AC000FFF7B1FF9DF801009DF8001051EA0021A9
:104AD000344801809DF803009DF8021051EA00213E
:104AE000314801809DF805009DF8041051EA00212D
:104AF0002E48018007BD00001FB50024142000F0DF
:104B00000FF9082002900220019002200090022359
:104B1000274A00210220FDF75BF90323012201212E
:104B20007B2000F03DFAFFF78FFF002808D040F20D
:104B30000D13204A20490020FDF776FC012423E0D4
:104B400003210D20FFF750FF3C211020FFF74CFF01
:104B50005C211120FFF748FF44211220FFF744FF9A
:104B600002211320FFF740FF00211420FFF73CFF34
:104B700000211520FFF738FF00211620FFF734FF32
:104B800001211820FFF730FF2000C0B204B010BD93
:104B90008407314088073140D60E0228D80E0228FB
:104BA000DA0E0228D00E0228D20E0228D40E0228D5
:104BB000809698009066081000690810022801D3BA
:104BC00001200FE00B00DBB2042B01DB012009E028
:104BD000954B03EB8000C9B2405C824201D30120B7
:104BE00000E000207047F8B506000F0015001C001B
:104BF000022E01D301201CE02A003900C9B2300086
:104C0000FFF7DCFF012801D1012012E03800C0B21B
:104C1000002811D1B4F5807F0CD28448760330444B
:104C200000EB850010F58050016864F30F210160EE
:104C30000020F2BD0120FCE7FFB2012F10D1B4F536
:104C4000803F0BD279487603304400EB850010F5A5
:104C5000A050016864F317210160E9E70120E8E74B
:104C60000120E6E700B20012C0B27047F8B50500B7
:104C70000E001700280000B2FFF7F4FF0400200028
:104C8000C0B2022801D3012023E03A003100C9B2AA
:104C90002000C0B2FFF792FF012801D1012018E0E7
:104CA00062492000C0B2400308442A00D2B200EB9F
:104CB0008200D0F8000CF6B266F3092067F3070013
:104CC000E4B264032144EDB201EB8501C1F8000CAC
:104CD0000020F2BD70B504000D001600022C01D3B7
:104CE00001201CE032002900C9B22000FFF766FF56
:104CF000012801D1012012E04C496003085850F00E
:104D0000004050F0407050F47F00EDB265F3092090
:104D100066F307006203885064030859002070BDE1
:104D2000F8B504004FF4FA504443414D414E002180
:104D30002878C001304400F043FA14E02878C0011C
:104D4000304400F03FFAB842F8D33B4F3C19287882
:104D5000C001304400F036FA3F1839002878C0010D
:104D6000304400F02DFA4CF25137BC42E6D228789C
:104D7000C001304400F026FA8442F8D2F1BD38B5C3
:104D800094B0502100226C462000FDF773F92B4CA3
:104D900000220121B4F90000FFF768FFB4F9000018
:104DA000FFF760FF092300220121C0B2FFF71BFFBC
:104DB000B4F90000FFF756FF00220121C0B2FFF74F
:104DC00089FF5FF0FF30009000208DF80400002084
:104DD0008DF8050000208DF8060000208DF80800F1
:104DE00003208DF844000120129001208DF8070067
:104DF0000F4C104D69462078C001284400F016F988
:104E00002078C001284400F0D1F900212078C001A9
:104E1000284400F0D5F92078C001284400F0E2F9D8
:104E200015B030BD00000000246A081000000440E6
:104E3000B707022800005940B03CFFFFB407022822
:104E400051EC102B9FED1C2B9FED1D3BB0EEC00BCA
:104E5000C80F31F0004129D0B4EE402BB1F17F5C96
:104E600028BFBCF5401C08BF124214D8F1EE10FA5E
:104E700033EE401B33EE002B22EE011BB1EEC11BC3
:104E800005D580F0040081EE000B00F0B1B980EE92
:104E9000010B00F0ADB9490011F5001F9CBF6FF088
:104EA000004120EE101BAFF3008070471242D3D1B7
:104EB000C00720EE100B7047CE3B7F669EA0E63FFA
:104EC000000000000000F03F52EC113B51EC10CB11
:104ED000B0EEC00BB0EEC11BC80F4900520028BF96
:104EE0000C3011F5001F34BF12F5001F10E06345B0
:104EF00072EB010C38BF80F0040013431AD003D2C8
:104F000081EE000B00F074B980EE010B00F070B977
:104F100011F5001F08BF80F0040094BF12F5001FB8
:104F20000CE08A424FF0000312BF00224FF07C5287
:104F300042F4700242EC103B00F05AB96FF00041AD
:104F400020EE101B70470000012212FA01F181606F
:104F50007047012212FA01F14160704780B5C9B271
:104F600000290ED00100C9B2082291FBF2F302FB26
:104F700013112D4AC0B2C010C0011044FFF7E4FF66
:104F80000DE00100C9B2082291FBF2F302FB1311FC
:104F9000254AC0B2C010C0011044FFF7DAFF01BDBE
:104FA0002DE9F8418DB004000E0015001F003421DA
:104FB0000022E8464046FDF75DF8F6B2002E0ED11D
:104FC000FFB2002F02D0022F03D005E00F20019086
:104FD0000DE0082001900AE00820019007E0FFB2F0
:104FE000042F02D10F20019001E00E20019020003B
:104FF000C0B2C0280FD02100C9B208206A4691FB78
:10500000F0F300FB131108482300DBB2DB10DB01D7
:105010001844FDF706FB2900C9B22000C0B2FFF713
:105020009DFF0EB0BDE8F0810000314010B40122B8
:1050300091F84C30052B03D291F84D30052B01D35C
:105040001000A7E0002800F0A480002900F0A18053
:10505000514A12684B7963F392428B7913F0030340
:1050600063F311420B7A13F0070363F31A62CB79EF
:1050700063F39E720B7D63F3000291F8243063F3B7
:10508000410202600A7910F130031C6862F30704E0
:105090001C604A79012A0BD18A79002A02D10022A8
:1050A000826007E08A79012A04D10A68826001E0FF
:1050B00001228260CA6802610A694261CA6982612A
:1050C0000A6AC2610A680262344A12680B7E03F0FF
:1050D000FF03120A12021A4391F8303003F0FF0363
:1050E00063F3174291F8403003F0FF0363F31F624C
:1050F00091F8483003F0FF0363F30F224264284A1B
:10510000126891F8383003F0FF03120A12021A43B2
:1051100091F8283003F0FF0363F30F228264214AE1
:1051200012688B7D13F00303920892001A4391F8E2
:10513000253013F0030363F38B2291F82C3013F026
:10514000030363F3051291F8343013F0030363F3A0
:10515000092291F83C3013F0030363F3871291F8AE
:10516000443013F0030363F38302C2640E4A1268EF
:1051700091F84C3013F00703D208D2001A4391F88B
:105180004D3013F0070363F306124265497D8167D2
:105190000022100010BC70478C6A0810906A08103A
:1051A000946A0810986A08109C6A0810016851F007
:1051B000004101607047016821F0004101607047C3
:1051C00081607047806870477830016851F0010154
:1051D0000160704710F170010A6852F001020A6024
:1051E000006F70474030016851F010010160704756
:1051F00021A1B1EC061BB4EE410BF1EE10FA09DB74
:10520000B1EE424B33EE001B00EE034B84EE010B7C
:1052100040F0020030EE10CBB1EC063B2CF0004C1D
:10522000BCF1795F15D320EE001B03EE014B20EE9D
:10523000013B04EE015B05EE030BB1EC083B03EE12
:10524000014B04EE015B05EE016B06EE012B80EED7
:10525000020B38BF2031400810F0020F18BFB1EE2A
:10526000400B01EBC00191ED001B30EE010B28BF9C
:10527000B1EE400B7047000057CD9E5E1426D13F23
:10528000000000000000F03FAA4C58E87AB6FB3F4F
:10529000845D57134B57B03FB2934C19ED5EE43F1A
:1052A000BEDE02B90240F83FDE39028FC7C0743F4C
:1052B0008AAB1283000CC83F24D7E508B6D8F03F6C
:1052C0000F34580E5895FD3F00000000000000000C
:1052D00066732D3852C1E03F182D4454FB21F93F2D
:1052E00066732D3852C1F03F182D4454FB21F93F0D
:1052F00066732D3852C10040182D4454FB210940DB
:105300003FD038C6A6F10440022801D3012010E0A6
:105310000B00DBB2042B01DB01200AE0DFF86C3369
:1053200003EB8000C9B2405C824201D3012000E05F
:1053300000207047F8B506000F0015001C00022E73
:1053400001D301201DE02A003900C9B23000FFF767
:10535000DBFF012801D1012013E03800C0B2002892
:1053600012D1B4F5807F0DD2DFF8240376033044E8
:1053700000EB850010F58050016864F30F21016097
:105380000020F2BD0120FCE7FFB2012F11D1B4F5DE
:10539000803F0CD2DFF8F8027603304400EB850042
:1053A00010F5A050016864F317210160E8E70120BF
:1053B000E7E70120E5E700B20012C0B27047F8B598
:1053C00005000E001700280000B2FFF7F4FF0400EC
:1053D0002000C0B2022801D3012023E03A003100AE
:1053E000C9B22000C0B2FFF78FFF012801D1012010
:1053F00018E0A7492000C0B2400308442A00D2B2F6
:1054000000EB8200D0F8000CF6B266F3092067F3D7
:105410000700E4B264032144EDB201EB8501C1F859
:10542000000C0020F2BD70B504000D001600022C27
:1054300001D301201CE032002900C9B22000FFF78F
:1054400063FF012801D1012012E09149600308584F
:1054500050F0004050F0407050F47F00EDB265F322
:10546000092066F30700620388506403085900208E
:1054700070BD80B50100C9B2032906DA8549C0B202
:10548000C0010844FFF7A6FE07E08349C0B2C0018F
:105490000844B0F5C070FFF79DFE01BD70B596B031
:1054A00004000D005021002202AE3000FCF7E2FDA6
:1054B00000262000C0B203286ADA00220121200061
:1054C000C0B200F2711000B2FFF779FF2000C0B245
:1054D00000F2711000B2FFF76EFF092300220121D4
:1054E000C0B2FFF727FF2000C0B200F2711000B277
:1054F000FFF761FF00220121C0B2FFF794FF2000F7
:10550000C0B210F5D570ADF800000220ADF8020071
:1055100001208DF80400032260482100C9B250F830
:1055200021106846FDF73EFEED00029500208DF843
:105530000C0000208DF80D0000208DF80E000020DA
:105540008DF8100003208DF84C00012014900020ED
:105550008DF8540000208DF855004E4D02A9200012
:10556000C0B2C0012844FFF761FD2000C0B2C001F5
:105570002844FFF71BFE2000C0B2C0012844FFF7FB
:1055800031FEE4B2E40105EB0400FFF71DFE7AE012
:10559000002201212000C0B210F5B17000B2FFF767
:1055A0000EFF2000C0B210F5B17000B2FFF703FF8C
:1055B000092300220121C0B2FFF7BCFE2000C0B2C7
:1055C00010F5B17000B2FFF7F6FE00220121C0B263
:1055D000FFF729FF2000C0B200F29B10ADF80000D9
:1055E0000220ADF8020001208DF8040003222B48B0
:1055F0002100C9B250F821106846FDF7D3FDED0037
:10560000002005E0B5F5803F01D3761C6D08401CF5
:105610000828F7DB02958DF80C6000208DF80D004E
:1056200000208DF80E0000208DF8100003208DF86A
:105630004C000120149000208DF8540000208DF8BB
:105640005500154D02A92000C0B2C0012844B0F594
:10565000C070FFF7EBFC2000C0B2C0012844B0F5D9
:10566000C070FFF7A3FD2000C0B2C0012844B0F510
:10567000C070FFF7B7FDE4B2E40105EB0400B0F53C
:10568000C070FFF7A1FD16B070BD0000246A0810BD
:1056900000000440000059400080584040070228A4
:1056A000022801D301200FE00B00DBB2042B01DB49
:1056B000012009E09B4B03EB8000C9B2405C8242B1
:1056C00001D3012000E000207047F8B506000F006C
:1056D00015001C00022E01D301201CE02A00390015
:1056E000C9B23000FFF7DCFF012801D1012012E030
:1056F0003800C0B2002811D1B4F5807F0CD28A489E
:105700007603304400EB850010F58050016864F3A7
:105710000F2101600020F2BD0120FCE7FFB2012F44
:1057200010D1B4F5803F0BD27F487603304400EBB4
:10573000850010F5A050016864F317210160E9E7C6
:105740000120E8E70120E6E700B20012C0B270478E
:10575000F8B505000E001700280000B2FFF7F4FFAF
:1057600004002000C0B2022801D3012023E03A0047
:105770003100C9B22000C0B2FFF792FF012801D169
:10578000012018E068492000C0B2400308442A0004
:10579000D2B200EB8200D0F8000CF6B266F309201A
:1057A00067F30700E4B264032144EDB201EB850125
:1057B000C1F8000C0020F2BD70B504000D00160009
:1057C000022C01D301201CE032002900C9B22000C4
:1057D000FFF766FF012801D1012012E05249600362
:1057E000085850F0004050F0407050F47F00EDB287
:1057F00065F3092066F307006203885064030859C3
:10580000002070BD38B50400484D2000C0B2C00172
:10581000284410F5C070FFF7C9FCE4B2E40105EBC1
:10582000040010F5C070FFF7DDFC31BD10B50400B9
:105830003E482100C9B2C901084410F5C070FFF705
:10584000C1FC3B49E4B2095D012902D14FF4FA5190
:1058500000E00821B0FBF1F010BD70B594B0040079
:105860000D00502100226E463000FCF703FC30484A
:105870002100C9B24554002201212000C0B210F518
:10588000BA7000B2FFF764FF2000C0B210F5BA7022
:1058900000B2FFF759FF092300220121C0B2FFF730
:1058A00014FF2000C0B210F5BA7000B2FFF74CFF31
:1058B00000220121C0B2FFF77FFF5FF0FF300090B0
:1058C00000208DF8040000208DF8050000208DF8E0
:1058D000060000208DF8080003208DF84400012008
:1058E000129001208DF80700104D69462000C0B2CB
:1058F000C001284410F5C070FFF798FB2000C0B22B
:10590000C001284410F5C070FFF755FC0021E4B237
:10591000E40105EB040010F5C070FFF751FC14B072
:1059200070BD0000246A08100000044000005940C7
:10593000C80E0228D0F8C80F7047C0F8C01FD0F8B2
:10594000C00F7047D0F8880F7047C0F8801FD0F89C
:10595000800F704780B50020FFF78BFD79480078F5
:10596000002801D0FEF78AFF77480168491C0160D2
:1059700001BD80B50120FFF77CFD01BD80B502208F
:10598000FFF777FD01BD80B50320FFF772FD01BD74
:1059900080B50420FFF76DFD01BD80B50520FFF740
:1059A00068FD01BD80B50620FFF763FD01BD80B530
:1059B0000720FFF75EFD01BD80B50820FFF759FD08
:1059C00001BD80B50920FFF754FD01BD80B50A2057
:1059D000FFF74FFD01BD80B50B20FFF74AFD01BD6C
:1059E00080B50C20FFF745FD01BD80B50D20FFF708
:1059F00040FD01BD80B50E20FFF73BFD00F0AAF889
:105A000001BD80B50020FDF7F2F8FFF793FF4007D6
:105A100008D50020FDF7EBF80421FFF78EFF00F01A
:105A200009F90DE00020FDF7E2F8FFF78BFF800594
:105A300006D50020FDF7DBF84FF40071FFF785FF76
:105A400001BD80B50120FDF7D2F8FFF773FF4007D5
:105A500009D50120FDF7CBF80421FFF76EFF3B4885
:105A6000006880470DE00120FDF7C1F8FFF76AFFED
:105A7000800506D50120FDF7BAF84FF40071FFF755
:105A800064FF01BD80B50220FDF7B1F8FFF752FFBA
:105A9000400708D50220FDF7AAF80421FFF74DFFC3
:105AA00000F0E2F80DE00220FDF7A1F8FFF74AFF51
:105AB000800506D50220FDF79AF84FF40071FFF734
:105AC00044FF01BD80B50320FDF791F8FFF732FFD9
:105AD000400706D50320FDF78AF80421FFF72DFFC4
